:020000040800F2
:100000000000022031250008A5230008B1230008C4
:10001000B9230008C1230008C9230008000000001C
:10002000000000000000000000000000C197000870
:10003000D123000800000000119A0008056C000898
:1000400081250008812500088125000881250008F8
:1000500081250008812500088125000881250008E8
:1000600081250008812500088125000881250008D8
:1000700081250008E123000881250008812500086A
:1000800081250008812500088125000881250008B8
:1000900081250008812500088125000881250008A8
:1000A0008125000881250008812500088125000898
:1000B000F523000803240008112400088125000806
:1000C00081250008812500088125000821240008D9
:1000D00081250008352400088125000881250008B5
:1000E00049240008812500088125000857240008BC
:1000F000652400087524000881250008892400086B
:1001000081250008812500089D240008812500081C
:1001100081250008AD24000881250008C1240008BD
:100120008125000881250008D1240008E524000865
:100130008125000881250008812500088125000807
:1001400081250008812500088125000881250008F7
:100150008125000881250008F92400088125000870
:1001600081250008812500088125000881250008D7
:100170008125000881250008812500080000000075
:0801800081250008812500081B
:1001900010B5054C237833B9044B13B10448AFF3C1
:1001A00000800123237010BD10000020000000001B
:1001B000EC9F000808B5034B1BB103490348AFF39C
:1001C000008008BD0000000014000020EC9F000823
:1001D00053B94AB9002908BF00281CBF4FF0FF31AE
:1001E0004FF0FF3000F088B9ADF1080C6DE904CE96
:1001F00000F006F8DDF804E0DDE9022304B0704702
:100200002DE9F047089D8E4604468846002B4AD1CA
:100210008A42174662D9B2FA82F64EB1C6F120037D
:1002200001FA06F820FA03F3B74043EA0808B4409D
:100230004FEA174E1FFA87FCB8FBFEF1230C0EFBAA
:10024000118843EA084301FB0CF29A4209D9FB18D2
:1002500001F1FF3080F0EA809A4240F2E7800239F3
:100260003B449A1AA3B2B2FBFEF00EFB102243EA03
:10027000024300FB0CFC9C4509D9FB1800F1FF323E
:1002800080F0D6809C4540F2D3803B44023840EA5F
:100290000140A3EB0C0300211DB1F3400022C5E98E
:1002A0000032BDE8F0878B4205D90DB1C5E90001E8
:1002B00000210846F5E7B3FA83F1002946D17345DA
:1002C00002D3824200F20581841A6EEB0302012000
:1002D0009046002DE5D0C5E90048E2E7002A00F08D
:1002E0009080B2FA82F6002E40F0A4808A1A030CA5
:1002F0004FEA174E80B2BCB20121B2FBFEFC0EFBEE
:100300001C2243EA024304FB0CF29A4207D9FB1871
:100310000CF1FF3802D29A4200F2E080C4469B1AE8
:10032000B3FBFEF20EFB123340EA034302FB04F47C
:100330009C4207D9FB1802F1FF3002D29C4200F226
:10034000CA8002461B1B42EA0C40A5E7C1F1200609
:100350008B4022FA06F71F430EFA01F420FA06F347
:100360002EFA06FE4FEA1749234300FA01F81FFA56
:1003700087FCBEFBF9F01C0C09FB10EE44EA0E44AE
:1003800000FB0CFEA64502FA01F209D93C1900F166
:10039000FF3A80F09C80A64540F2998002383C44A8
:1003A000A4EB0E041FFA83FEB4FBF9F309FB13441C
:1003B0004EEA044403FB0CFCA44508D93C1903F1A4
:1003C000FF3E80F08280A4457FD9023B3C4443EA53
:1003D0000040A4EB0C04A0FB02EC64457346E1462C
:1003E00062D35FD05DB1B8EB030264EB090404FA99
:1003F00006F622FA01F31E43CC40C5E90064002151
:100400004FE7B1FBF2FC010C41EA0E4180B240EA39
:1004100001423B4638463C46B846BE462026B1FB24
:10042000F7F1A2EB080241EA0C4166E7014618E742
:1004300010462CE7C6F120022EFA02F3B740B14075
:1004400020FA02F24FEA174E0A43B3FBFEF8BCB2A1
:100450000EFB1833110C41EA034108FB04F9B040CC
:1004600089454FEA104380B23ED9791808F1FF3C24
:1004700001D289451FD8A1EB0901B1FBFEF909FBA7
:1004800004F80EFB191192B242EA0142424529D208
:10049000BA1809F1FF31C4D24245C2D2A9F1020112
:1004A0003A44BEE7F0459DD2BEEB02036CEB070C6D
:1004B0000138E14696E7A7EB09094944A8F1020C87
:1004C000B1FBFEF909FB04F8DBE773467FE7504612
:1004D00066E70846FDE63B44023A33E7ACF1020C1E
:1004E0003B441CE749469CE7A1EB0901C446B1FB2C
:1004F000FEF909FB04F8C4E7704700BF80B400AF01
:1005000000BFBD465DF8047B704780B400AF00BFFC
:10051000BD465DF8047B704780B500AF02F032F84D
:1005200000F02CF900F082FF00F042FF00F016FF0F
:1005300000F0E2FA00F0A6FB00F0A0FC00F028FDBD
:1005400000F094FD00F0E0FD00F072FA00F0EAFC2B
:1005500000F0ECFB00F03EFC00F08CFE00F026FA10
:1005600000F020FE00F0C2F900F034FA00F0CCFEFA
:1005700000F08CFA00F06EF906F05EFB4E4806F0D3
:10058000E3FC03464D4A13604D4A0021012006F06A
:1005900061FD03464B4A13604B4A0021012006F0DF
:1005A00059FD0346494A1360494A0021012006F0DB
:1005B00051FD0346474A1360474A0021012006F0D7
:1005C00049FD0346454A1360454A0021012006F0D3
:1005D00041FD0346434A1360434B00220121434837
:1005E00006F036FC0346424A1360424B00220121CA
:1005F000414806F02DFC0346404A1360404B002260
:100600000121404806F024FC03463F4A13603F4B5B
:10061000002201213E4806F01BFC03463D4A1360C0
:100620003D4A0421402006F09EFD03463B4A1360EC
:100630003B4A0121202006F096FD0346394A13600B
:10064000394A0021394806F041FB0346384A136015
:10065000384A0021384806F039FB0346374A136010
:10066000374A0021374806F031FB0346364A13600B
:10067000364A0021364806F029FB0346354A136006
:10068000354A0021354806F021FB0346344A136001
:10069000344A0021344806F019FB0346334A1360FC
:1006A000334A0021334806F011FB0346324A1360F7
:1006B00006F0E6FA00BFFDE7B4A20008340F002000
:1006C000C4A20008380F0020D4A200083C0F00206C
:1006D000E4A20008400F0020F4A20008440F00200C
:1006E00004A30008480F002074A2000801170008A6
:1006F000740E002084A2000815170008A40E002024
:1007000094A2000829170008D40E0020A4A2000813
:100710003D170008040F002044A20008AC0C002084
:100720005CA20008000E002048A1000891160008F5
:10073000900C00206CA10008A1160008940C002069
:1007400090A10008B1160008980C0020B4A1000880
:10075000C11600089C0C0020D8A10008D116000882
:10076000A00C0020FCA10008E1160008A40C002049
:1007700020A20008F1160008A80C002080B594B053
:1007800000AF07F1200330220021184609F0F4FBE6
:1007900007F10C0300221A605A609A60DA601A614D
:1007A0000023BB60294B1B6C284A43F08053136421
:1007B000264B1B6C03F08053BB60BB6800237B603F
:1007C000234B1B68224A43F480431360204B1B6871
:1007D00003F480437B607B6801233B624FF48033EA
:1007E0007B620223BB634FF48003FB6308233B64FB
:1007F000A8237B640223BB640723FB6407F1200367
:10080000184603F0D7F80346002B01D000F0B2FFE2
:100810000F23FB6002233B6100237B614FF4A05355
:10082000BB614FF48053FB6107F10C0305211846AF
:1008300003F038FB0346002B01D000F09BFF03F0D0
:1008400017FC00BF5037BD4680BD00BF00380240D6
:100850000070004080B500AF002205210D2002F09D
:10086000EDF90D2002F006FA002205211C2002F00D
:10087000E5F91C2002F0FEF9002205211D2002F0FE
:10088000DDF91D2002F0F6F900220521282002F0F2
:10089000D5F9282002F0EEF9002205212B2002F0E4
:1008A000CDF92B2002F0E6F9002205212C2002F0E0
:1008B000C5F92C2002F0DEF9002205212F2002F0DC
:1008C000BDF92F2002F0D6F900220521322002F0D6
:1008D000B5F9322002F0CEF900220521372002F0CE
:1008E000ADF9372002F0C6F900BF80BD80B584B0F5
:1008F00000AF3B4600221A605A609A60DA60284BCB
:10090000284A1A60264B4FF440325A60244B00228A
:100910009A60234B01221A61214B00221A76204B48
:10092000002283F820201E4B0022DA621C4B1E4A54
:100930009A621B4B0022DA60194B0222DA61184BD3
:10094000002283F83020164B00225A61144801F02F
:100950005BFE0346002B01D000F00CFF11233B602F
:1009600001237B600723BB603B4619460C4801F01E
:100970008FFE0346002B01D000F0FCFE08233B60F5
:1009800002237B603B461946054801F081FE034681
:10099000002B01D000F0EEFE00BF1037BD4680BD39
:1009A0002C000020002001400100000F80B500AFA6
:1009B000064B074A1A60054802F06AF90346002B05
:1009C00001D000F0D7FE00BF80BD00BFD4000020E2
:1009D0000030024080B500AF124B134A1A60114B31
:1009E000124A5A600F4B00229A600E4B0022DA60C6
:1009F0000C4B4FF480421A610A4B00225A61094B9A
:100A000000229A61074B0022DA61064B00221A622B
:100A1000044802F08BFE0346002B01D000F0AAFE32
:100A200000BF80BDDC00002000540040A086010013
:100A300080B500AF124B134A1A60114B124A5A602C
:100A40000F4B00229A600E4B0022DA600C4B4FF4E1
:100A500080421A610A4B00225A61094B00229A61B6
:100A6000074B0022DA61064B00221A62044802F0AA
:100A70005DFE0346002B01D000F07CFE00BF80BD70
:100A80003001002000580040A086010080B500AF72
:100A9000174B184A1A60164B4FF482725A60144B67
:100AA00000229A60124B0022DA60114B00221A6178
:100AB0000F4B00225A610E4B4FF400729A610C4B9F
:100AC0001822DA610A4B00221A62094B00225A628C
:100AD000074B00229A62064B0A22DA62044803F0AE
:100AE00059FC0346002B01D000F044FE00BF80BD3E
:100AF000440200200030014080B596B000AF07F1FD
:100B0000480300221A605A609A60DA6007F14003D5
:100B100000221A605A6007F1240300221A605A600A
:100B20009A60DA601A615A619A613B1D20220021A5
:100B3000184609F021FA514B514A1A604F4B40F2C6
:100B400047325A604D4B00229A604C4B40F2E732DC
:100B5000DA604A4B00221A61484B00225A61474B27
:100B600080229A61454803F037FE0346002B01D0EE
:100B700000F000FE4FF48053BB6407F148031946B0
:100B80003E4804F0A3FA0346002B01D000F0F2FD2A
:100B90003A4803F053FF0346002B01D000F0EAFD72
:100BA00000233B6400237B6407F14003194633486C
:100BB00004F0F6FE0346002B01D000F0DBFD6023BD
:100BC0007B620023BB620023FB6200233B630423A0
:100BD0007B630023BB630023FB6307F12403002234
:100BE0001946264804F0B0F90346002B01D000F066
:100BF000C1FD07F1240304221946204804F0A4F99A
:100C00000346002B01D000F0B5FD07F124030822B4
:100C100019461A4804F098F90346002B01D000F059
:100C2000A9FD07F124030C221946144804F08CF99D
:100C30000346002B01D000F09DFD00237B600023C4
:100C4000BB600023FB6000233B6100237B614FF40A
:100C50000053BB6100233B623B1D1946074804F06B
:100C60001BFF0346002B01D000F084FD034801F078
:100C700077F900BF5837BD4680BD00BF2403002070
:100C80000000014080B58CB000AF07F10C032422B6
:100C90000021184609F070F93B1D00221A605A60C5
:100CA000214B4FF080421A601F4B00225A601E4BAE
:100CB00000229A601C4B4EF66022DA601A4B00222A
:100CC0001A61194B80229A610323FB6000233B6168
:100CD00001237B610023BB610023FB6100233B6296
:100CE00001237B620023BB620023FB6207F10C033C
:100CF00019460D4803F008FF0346002B01D000F011
:100D000039FD00237B600023BB603B1D194606486C
:100D100004F046FE0346002B01D000F02BFD00BF7F
:100D20003037BD4680BD00BFD803002080B58CB0F1
:100D300000AF07F10C0324220021184609F01CF92A
:100D40003B1D00221A605A60204B214A1A601F4B3B
:100D500000225A601D4B00229A601C4B4EF6602206
:100D6000DA601A4B00221A61184B80229A61032321
:100D7000FB6000233B6101237B610023BB610023F7
:100D8000FB6100233B6201237B620023BB620023E3
:100D9000FB6207F10C0319460C4803F0B5FE03464D
:100DA000002B01D000F0E6FC00237B600023BB6039
:100DB0003B1D1946054804F0F3FD0346002B01D006
:100DC00000F0D8FC00BF3037BD4680BD8C04002049
:100DD0000004004080B58CB000AF07F10C03242262
:100DE0000021184609F0C8F83B1D00221A605A601D
:100DF000204B214A1A601F4B00225A601D4B0022D3
:100E00009A601C4B4EF66022DA601A4B00221A617F
:100E1000184B80229A610323FB6000233B6101236E
:100E20007B610023BB610023FB6100233B62012344
:100E30007B620023BB620023FB6207F10C031946AF
:100E40000C4803F061FE0346002B01D000F092FC39
:100E500000237B600023BB603B1D1946054804F05E
:100E60009FFD0346002B01D000F084FC00BF30370B
:100E7000BD4680BD400500200008004080B58CB014
:100E800000AF07F10C0324220021184609F074F882
:100E90003B1D00221A605A60204B214A1A601F4BEA
:100EA00000225A601D4B00229A601C4B4EF66022B5
:100EB000DA601A4B00221A61184B80229A610323D0
:100EC000FB6000233B6101237B610023BB610023A6
:100ED000FB6100233B6201237B620023BB62002392
:100EE000FB6207F10C0319460C4803F00DFE0346A4
:100EF000002B01D000F03EFC00237B600023BB6090
:100F00003B1D1946054804F04BFD0346002B01D05C
:100F100000F030FC00BF3037BD4680BDF405002036
:100F2000000C004080B582B000AF3B4600221A6042
:100F30005A60154B154A1A60134B53225A60124BD4
:100F400000229A60104B42F20F72DA600E4B802240
:100F50009A610D4803F040FC0346002B01D000F0DD
:100F600009FC00233B6000237B603B461946064892
:100F700004F016FD0346002B01D000F0FBFB00BF80
:100F80000837BD4680BD00BFA80600200014004001
:100F900080B58CB000AF07F1200300221A605A60C0
:100FA0009A60DA603B1D00221A605A609A60DA602B
:100FB0001A615A619A612B4B2B4A1A60294B40F2F5
:100FC00047325A60274B00229A60264B40F2E732A4
:100FD000DA60244B00221A61224B80229A61214858
:100FE00003F0FAFB0346002B01D000F0C3FB4FF4E3
:100FF00080533B6207F1200319461A4804F066F853
:101000000346002B01D000F0B5FB164803F016FD97
:101010000346002B01D000F0ADFB60237B60002372
:10102000BB600023FB6004237B613B1D002219464B
:101030000C4803F089FF0346002B01D000F09AFB17
:101040003B1D04221946074803F07EFF0346002B90
:1010500001D000F08FFB034800F082FF00BF303763
:10106000BD4680BD5C0700200040014080B588B0CF
:1010700000AF3B1D00221A605A609A60DA601A6164
:101080005A619A611E4B1F4A1A601D4B40F247324B
:101090005A601B4B00229A60194B40F2E732DA602B
:1010A000174B00221A61164B80229A61144803F0F4
:1010B00093FB0346002B01D000F05CFB104803F0CB
:1010C000BDFC0346002B01D000F054FB60237B6085
:1010D0000023BB600023FB6004237B613B1D0022D7
:1010E0001946074803F030FF0346002B01D000F0FB
:1010F00041FB034800F034FF00BF2037BD4680BDF0
:10110000100800200044014080B588B000AF3B1DAE
:1011100000221A605A609A60DA601A615A619A6114
:101120001E4B1F4A1A601D4B40F247325A601B4B40
:1011300000229A60194B40F2E732DA60174B002226
:101140001A61164B80229A61144803F045FB03464E
:10115000002B01D000F00EFB104803F06FFC03469B
:10116000002B01D000F006FB60237B600023BB60F6
:101170000023FB6004237B613B1D002219460748C6
:1011800003F0E2FE0346002B01D000F0F3FA03481F
:1011900000F0E6FE00BF2037BD4680BDC408002039
:1011A0000048014080B58CB000AF07F12003002259
:1011B0001A605A609A60DA603B1D00221A605A6019
:1011C0009A60DA601A615A619A61284B284A1A605B
:1011D000264B40F247325A60244B00229A60234B40
:1011E0006322DA60214B00221A61204B80229A612F
:1011F0001E4803F0F1FA0346002B01D000F0BAFAC2
:101200004FF480533B6207F120031946174803F05F
:101210005DFF0346002B01D000F0ACFA134803F049
:10122000A7FB0346002B01D000F0A4FA00237B604B
:101230003223BB600023FB6000237B613B1D002247
:1012400019460A4803F024FE0346002B01D000F0A3
:1012500091FA064B1B689A69044B1B6842F008021E
:101260009A6100BF3037BD4680BD00BF78090020BD
:101270000018004080B588B000AF3B1D00221A6006
:101280005A609A60DA601A615A619A611C4B1D4A71
:101290001A601B4B53225A60194B00229A60184B5C
:1012A00041F28732DA60164B00221A61144B802219
:1012B0009A61134803F090FA0346002B01D000F026
:1012C00059FA0F4803F054FB0346002B01D000F0FD
:1012D00051FA00237B600023BB600023FB600023E6
:1012E0007B613B1D00221946054803F0D1FD0346F2
:1012F000002B01D000F03EFA00BF2037BD4680BD74
:101300002C0A0020001C004080B500AF114B124A8F
:101310001A60104B4FF4E1325A600E4B00229A6073
:101320000C4B0022DA600B4B00221A61094B0C2295
:101330005A61084B00229A61064B0022DA61054887
:1013400004F078FC0346002B01D000F013FA00BF34
:1013500080BD00BFE00A00200050004080B500AF13
:10136000114B124A1A60104B4FF4E1325A600E4B87
:1013700000229A600C4B0022DA600B4B00221A61AB
:10138000094B0C225A61084B00229A61064B00223D
:10139000DA61054804F0F0FB0346002B01D000F0B1
:1013A000E9F900BF80BD00BF580B002000100140CC
:1013B00080B582B000AF00237B601B4B1B6B1A4AC9
:1013C00043F400131363184B1B6B03F400137B608F
:1013D0007B6800233B60144B1B6B134A43F4800370
:1013E0001363114B1B6B03F480033B603B680022CB
:1013F00005213A2001F022FC3A2001F03BFC0022BA
:1014000005213B2001F01AFC3B2001F033FC0022B7
:101410000521462001F012FC462001F02BFC00BF04
:101420000837BD4680BD00BF0038024080B58CB093
:1014300000AF07F11C0300221A605A609A60DA605C
:101440001A610023BB618C4B1B6B8B4A43F010036A
:101450001363894B1B6B03F01003BB61BB69002353
:101460007B61854B1B6B844A43F004031363824BFF
:101470001B6B03F004037B617B6900233B617E4BA4
:101480001B6B7D4A43F0800313637B4B1B6B03F0A4
:1014900080033B613B690023FB60774B1B6B764A03
:1014A00043F001031363744B1B6B03F00103FB60F8
:1014B000FB680023BB60704B1B6B6F4A43F0020359
:1014C00013636D4B1B6B03F00203BB60BB6800230F
:1014D0007B60694B1B6B684A43F008031363664BE0
:1014E0001B6B03F008037B607B6800224FF4CA513A
:1014F000624802F001F901224FF4C061604802F035
:10150000FBF800224FF400615D4802F0F5F801227B
:101510004FF480715B4802F0EFF800224FF4007145
:10152000584802F0E9F849F29C53FB6103233B62FF
:1015300000237B6207F11C031946534801F040FF6A
:101540004EF6FF43FB6103233B6200237B6207F1FE
:101550001C0319464B4801F033FF1C23FB61032396
:101560003B6200237B6207F11C031946434801F0EC
:1015700027FF4FF4A073FB6101233B6200237B62D2
:101580000323BB6207F11C0319463C4801F018FF16
:101590004EF20603FB6103233B6200237B6207F1EB
:1015A0001C031946394801F00BFF4FF48053FB61CF
:1015B0004FF488133B6202237B6207F11C03194638
:1015C000324801F0FDFE4CF2FF13FB6103233B6246
:1015D00000237B6207F11C031946294801F0F0FE45
:1015E0004FF46063FB6101233B6200237B620123B4
:1015F000BB6207F11C031946214801F0E1FE4FF4DC
:101600008073FB6101233B6200237B620023BB628A
:1016100007F11C0319461B4801F0D2FE4FF400737A
:10162000FB6101233B6200237B620223BB6207F163
:101630001C031946134801F0C3FE4FF4C053FB616D
:1016400001233B6200237B620223BB6207F11C0380
:1016500019460A4801F0B4FE0323FB6100233B62F4
:1016600000237B6207F11C031946074801F0A8FE1E
:1016700000BF3037BD4680BD003802400000024048
:10168000000C02400008024000100240000402402A
:1016900080B582B000AF7860012005F0A9FBFBE7C0
:1016A00080B582B000AF7860012005F0A1FBFBE7B8
:1016B00080B582B000AF7860012005F099FBFBE7B0
:1016C00080B582B000AF7860012005F091FBFBE7A8
:1016D00080B582B000AF7860012005F089FBFBE7A0
:1016E00080B582B000AF7860012005F081FBFBE798
:1016F00080B582B000AF7860012005F079FBFBE790
:1017000080B483B000AF786000BF0C37BD465DF891
:10171000047B704780B483B000AF786000BF0C37A3
:10172000BD465DF8047B704780B483B000AF78603D
:1017300000BF0C37BD465DF8047B704780B483B0B2
:1017400000AF786000BF0C37BD465DF8047B704782
:1017500080B582B000AF78607B681B68044A934212
:1017600001D100F031FF00BF0837BD4680BD00BF8A
:101770000020004080B400AF72B600BF00BFFDE79C
:1017800080B582B000AF00237B60124B5B6C114AC6
:1017900043F4804353640F4B5B6C03F480437B60E2
:1017A0007B6800233B600B4B1B6C0A4A43F0805361
:1017B0001364084B1B6C03F080533B603B680022B2
:1017C0000F216FF0010001F039FA00BF0837BD4664
:1017D00080BD00BF0038024080B58AB000AF78609D
:1017E00007F1140300221A605A609A60DA601A61E5
:1017F0007B681B682F4A934257D100233B612E4BD5
:101800005B6C2D4A43F4807353642B4B5B6C03F485
:1018100080733B613B690023FB60274B1B6B264AAF
:1018200043F002031363244B1B6B03F00203FB60C2
:10183000FB6801237B610323BB610023FB6107F18C
:10184000140319461D4801F0BBFD1D4B1D4A1A60CB
:101850001B4B00225A601A4B00229A60184B002240
:10186000DA60174B4FF480621A61154B4FF4006237
:101870005A61134B4FF400529A61114B4FF480722E
:10188000DA610F4B00221A620D4B00225A620C489B
:1018900001F01AFA0346002B01D0FFF76BFF7B68BB
:1018A000074A9A63064A7B68936300BF2837BD46A0
:1018B00080BD00BF0020014000380240000402400B
:1018C000740000201064024080B485B000AF7860DE
:1018D0007B681B680B4A93420DD10023FB600A4BC7
:1018E0001B6B094A43F480531363074B1B6B03F4D0
:1018F0008053FB60FB6800BF1437BD465DF8047B76
:10190000704700BF003002400038024080B58CB004
:1019100000AF786007F11C0300221A605A609A60D9
:10192000DA601A617B681B68624A93422CD10023FB
:10193000BB61614B1B6B604A43F0020313635E4B58
:101940001B6B03F00203BB61BB69C023FB61122365
:101950003B6201237B620323BB620423FB6207F12A
:101960001C031946554801F02BFD00237B61524BA7
:101970001B6C514A43F4001313644F4B1B6C03F46C
:1019800000137B617B6990E07B681B684C4A934243
:1019900040F08B8000233B61474B1B6B464A43F072
:1019A00002031363444B1B6B03F002033B613B696F
:1019B0004FF44063FB6112233B6201237B620323EC
:1019C000BB620423FB6207F11C0319463B4801F08C
:1019D000F7FC0023FB60384B1B6C374A43F4800351
:1019E0001364354B1B6C03F48003FB60FB68354BC1
:1019F000354A1A60334B4FF060625A60314B002217
:101A00009A60304B0022DA602E4B4FF480621A61EC
:101A10002C4B00225A612B4B00229A61294B002249
:101A2000DA61284B4FF440321A62264B00225A6288
:101A3000244801F049F90346002B01D0FFF79AFE34
:101A40007B68204A9A631F4A7B6893631F4B204A36
:101A50001A601E4B4FF060625A601C4B40229A6025
:101A60001A4B0022DA60194B4FF480621A61174B4F
:101A700000225A61154B00229A61144B0022DA6150
:101A8000124B4FF440321A62104B00225A620F4838
:101A900001F01AF90346002B01D0FFF76BFE7B68BB
:101AA0000A4A5A63094A7B68936300BF3037BD46D0
:101AB00080BD00BF005400400038024000040240D6
:101AC000005800408401002040600240E4010020F2
:101AD000B860024080B58AB000AF786007F11403A7
:101AE00000221A605A609A60DA601A617B681B688B
:101AF0003C4A934272D100233B613B4B5B6C3A4AB8
:101B000043F480535364384B5B6C03F480533B6164
:101B10003B690023FB60344B1B6B334A43F00103EA
:101B20001363314B1B6B03F00103FB60FB68202345
:101B30007B610223BB610023FB6102233B6205231F
:101B40007B6207F114031946284801F039FC802311
:101B50007B610223BB610123FB6102233B620523FE
:101B60007B6207F114031946204801F029FC204B41
:101B7000204A1A601E4B4FF0C0625A601C4B402234
:101B80009A601B4B0022DA60194B4FF480621A6195
:101B9000174B00225A61164B00229A61144B002207
:101BA000DA61134B4FF400321A62114B00225A6271
:101BB0000F4801F089F80346002B01D0FFF7DAFD4A
:101BC0007B680B4A9A640A4A7B689363002205216A
:101BD000232001F033F8232001F04CF800BF283710
:101BE000BD4680BD00300140003802400000024088
:101BF000C40200205864024080B48BB000AF78600B
:101C00007B681B68474A93420ED100237B62464B98
:101C10005B6C454A43F001035364434B5B6C03F038
:101C200001037B627B6A76E07B681B683F4A9342D4
:101C30000ED100233B623C4B1B6C3B4A43F020031C
:101C40001364394B1B6C03F020033B623B6A62E078
:101C50007B681B68364A93420ED10023FB61324BEE
:101C60005B6C314A43F4803353642F4B5B6C03F459
:101C70008033FB61FB694EE07B681B682D4A934211
:101C80000ED10023BB61284B5B6C274A43F4003321
:101C90005364254B5B6C03F40033BB61BB693AE0D2
:101CA0007B681B68244A93420ED100237B611E4B44
:101CB0005B6C1D4A43F4802353641B4B5B6C03F441
:101CC00080237B617B6926E07B681B681B4A93420B
:101CD0000ED100233B61144B1B6C134A43F04003AD
:101CE0001364114B1B6C03F040033B613B6912E032
:101CF0007B681B68124A93420DD10023FB600A4B9C
:101D00001B6C094A43F080031364074B1B6C03F000
:101D10008003FB60FB6800BF2C37BD465DF8047B89
:101D2000704700BF0000014000380240001400402E
:101D300000400140004401400048014000180040BC
:101D4000001C004080B590B000AF786007F12C0314
:101D500000221A605A609A60DA601A617B681B6818
:101D6000B3F1804F4BD10023BB62764B1B6C754A9D
:101D700043F001031364734B1B6C03F00103BB625C
:101D8000BB6A00237B626F4B1B6B6E4A43F00103FF
:101D900013636C4B1B6B03F001037B627B6A0023B4
:101DA0003B62684B1B6B674A43F002031363654B4E
:101DB0001B6B03F002033B623B6A4FF40043FB6280
:101DC00002233B6301237B630323BB630123FB6388
:101DD00007F12C0319465C4801F0F2FA0823FB6274
:101DE00002233B6301237B630323BB630123FB6368
:101DF00007F12C031946554801F0E2FA9DE07B6893
:101E00001B68534A93422CD10023FB614D4B1B6C42
:101E10004C4A43F0020313644A4B1B6C03F0020369
:101E2000FB61FB690023BB61464B1B6B454A43F0DA
:101E300002031363434B1B6B03F00203BB61BB69DB
:101E40003023FB6202233B6300237B630323BB63DA
:101E50000223FB6307F12C0319463C4801F0B0FA5A
:101E60006BE07B681B683B4A934235D100237B6162
:101E7000344B1B6C334A43F004031364314B1B6C2B
:101E800003F004037B617B6900233B612D4B1B6BDB
:101E90002C4A43F0080313632A4B1B6B03F008031F
:101EA0003B613B694FF44053FB6202233B630023D9
:101EB0007B630323BB630223FB6307F12C031946F7
:101EC000254801F07DFA002205211E2000F0B6FE13
:101ED0001E2000F0CFFE30E07B681B681F4A934253
:101EE0002BD10023FB60174B1B6C164A43F00803F1
:101EF0001364144B1B6C03F00803FB60FB680023A6
:101F0000BB60104B1B6B0F4A43F0010313630D4B77
:101F10001B6B03F00103BB60BB680323FB6202235E
:101F20003B6301237B630323BB630223FB6307F152
:101F30002C031946044801F043FA00BF4037BD4660
:101F400080BD00BF00380240000002400004024093
:101F50000004004000080040000C0240000C00405B
:101F600080B58CB000AF786007F11C0300221A60C6
:101F70005A609A60DA601A617B681B68494A93422A
:101F80001FD10023BB61484B1B6B474A43F0100332
:101F90001363454B1B6B03F01003BB61BB694FF42C
:101FA000D443FB6102233B6200237B620223BB62BA
:101FB0000123FB6207F11C0319463C4801F000FABB
:101FC0006CE07B681B683A4A93421ED100237B6118
:101FD000354B1B6B344A43F010031363324B1B6BBE
:101FE00003F010037B617B696023FB6102233B628A
:101FF00000237B620023BB620323FB6207F11C0307
:1020000019462A4801F0DCF948E07B681B68294A38
:1020100093421FD100233B61234B1B6B224A43F0A9
:1020200002031363204B1B6B03F002033B613B690C
:102030004FF48073FB6102233B6200237B62002329
:10204000BB620323FB6207F11C0319461A4801F027
:10205000B7F923E07B681B68184A93421ED100231E
:10206000FB60114B1B6B104A43F0020313630E4BD2
:102070001B6B03F00203FB60FB684FF40073FB6112
:1020800002233B6200237B620223BB620323FB62C9
:1020900007F11C031946084801F092F900BF3037D8
:1020A000BD4680BD000001400038024000100240E3
:1020B000004001400044014000040240004801404B
:1020C00080B58CB000AF786007F11C0300221A6065
:1020D0005A609A60DA601A617B681B686A4A9342A8
:1020E00035D10023BB61694B1B6C684A43F48013F4
:1020F0001364664B1B6C03F48013BB61BB69002344
:102100007B61624B1B6B614A43F0040313635F4BBB
:102110001B6B03F004037B617B694FF48053FB610D
:1021200012233B6200237B620323BB620823FB6212
:1021300007F11C031946564801F042F90022052117
:10214000352000F07BFD352000F094FD98E07B68A1
:102150001B68504A934240F0938000233B614B4BF5
:102160005B6C4A4A43F010035364484B5B6C03F0CA
:1021700010033B613B690023FB60444B1B6B434AEC
:1021800043F001031363414B1B6B03F00103FB603E
:10219000FB684FF4C063FB6102233B6200237B6258
:1021A0000323BB620723FB6207F11C0319463A486D
:1021B00001F006F9394B3A4A1A60384B4FF0006289
:1021C0005A60364B00229A60344B0022DA60334B5F
:1021D0004FF480621A61314B00225A612F4B00226A
:1021E0009A612E4B0022DA612C4B4FF400321A62B6
:1021F0002A4B00225A62294800F066FD0346002B54
:1022000001D0FFF7B7FA7B68244ADA63234A7B6878
:102210009363244B244A1A60224B4FF000625A60A9
:10222000204B40229A601F4B0022DA601D4B4FF476
:1022300080621A611B4B00225A611A4B00229A617C
:10224000184B0022DA61174B4FF400321A62154B1B
:1022500000225A62134800F037FD0346002B01D0DC
:10226000FFF788FA7B680F4A9A630E4A7B6893638C
:1022700000220521252000F0E1FC252000F0FAFCD9
:1022800000BF3037BD4680BD0050004000380240DE
:10229000000802400010014000000240D00B002066
:1022A00040640240300C0020B864024080B58EB01B
:1022B00000AF78600023FB620023BB620023FB6059
:1022C000334B1B6C324A43F480731364304B1B6CEA
:1022D00003F48073FB60FB6807F1100207F114033D
:1022E0001146184602F008F83B6AFB62FB6A002BB5
:1022F00003D101F0D9FF786304E001F0D5FF034674
:102300005B007B637B6B234AA2FB03239B0C013B9B
:10231000BB62214B214A1A601F4B40F2E732DA6060
:102320001D4ABB6A53601C4B00221A611A4B0022E3
:102330009A60194B00229A61174802F04DFA034641
:1023400087F8333097F83330002B1BD1124802F056
:102350009FFA034687F8333097F83330002B11D1BA
:102360002D2000F087FC7B680F2B08D800227968AD
:102370002D2000F063FC0A4A7B68136002E0012311
:1023800087F8333097F8333018463837BD4680BD6C
:102390000038024083DE1B434C0F00200020004029
:1023A0000400002080B500AF01F0D8FF00BFFDE7BA
:1023B00080B400AF00BFFDE780B400AF00BFFDE711
:1023C00080B400AF00BFFDE780B400AF00BFFDE701
:1023D00080B400AF00BFBD465DF8047B70470000CD
:1023E00080B500AF024800F0AFFD00BF80BD00BF68
:1023F0008401002080B400AF00BFBD465DF8047BBF
:10240000704780B400AF00BFBD465DF8047B7047E5
:1024100080B400AF00BFBD465DF8047B704700008C
:1024200080B500AF024802F071F800BF80BD00BF68
:102430004402002080B500AF024803F061FC00BFF9
:1024400080BD00BF580B002080B400AF00BFBD4668
:102450005DF8047B704780B400AF00BFBD465DF8F7
:10246000047B704780B400AF00BFBD465DF8047BBD
:102470007047000080B500AF024802F0F9FB00BFD2
:1024800080BD00BF4C0F002080B500AF024800F0B7
:102490005BFD00BF80BD00BFE401002080B400AF41
:1024A00000BFBD465DF8047B7047000080B500AFFB
:1024B000024803F025FC00BF80BD00BFE00A0020F9
:1024C00080B400AF00BFBD465DF8047B70470000DC
:1024D00080B500AF024800F037FD00BF80BD00BFEF
:1024E000D00B002080B500AF024800F02DFD00BFEA
:1024F00080BD00BFC402002080B500AF024800F0DC
:1025000023FD00BF80BD00BF300C002080B400AFB1
:10251000064BD3F88830054A43F47003C2F888307C
:1025200000BFBD465DF8047B704700BF00ED00E0D2
:10253000DFF834D0FFF7EAFF0C480D490D4A0023BD
:1025400002E0D458C4500433C4188C42F9D30A4A68
:102550000A4C002301E013600432A242FBD307F0CF
:1025600013FDFDF7D9FF7047000002200000002096
:102570001000002044A300081000002054C90020CF
:10258000FEE7000080B500AF0E4B1B680D4A43F418
:10259000007313600B4B1B680A4A43F4806313609B
:1025A000084B1B68074A43F480731360032000F054
:1025B0003AFB0F20FFF77AFEFFF7E2F800231846F8
:1025C00080BD00BF003C024080B400AF064B1B78CA
:1025D0001A46064B1B681344044A136000BFBD46ED
:1025E0005DF8047B704700BF080000200010002049
:1025F00080B400AF034B1B681846BD465DF8047BF2
:10260000704700BF0010002080B584B000AF786034
:102610000023FB737B68002B01D1012333E07B682F
:102620001B6C002B09D17868FFF7D6F87B68002275
:102630005A647B68002283F83C207B681B6C03F0A3
:102640001003002B18D17B681B6C23F4885323F0F4
:10265000020343F002027B681A64786800F03AF9DA
:102660007B6800225A647B681B6C23F0030343F0F1
:1026700001027B681A6401E00123FB737B6800227E
:1026800083F83C20FB7B18461037BD4680BD000018
:1026900080B485B000AF786039600023BB607B6890
:1026A00093F83C30012B01D1022305E17B68012224
:1026B00083F83C203B681B68092B25D97B681B6885
:1026C000D9683B681B689BB21A4613465B001344EB
:1026D0001E3B072202FA03F3DA437B681B680A40B9
:1026E000DA607B681B68D9683B689A683B681B683E
:1026F0009BB2184603465B0003441E3B9A407B682E
:102700001B680A43DA6022E07B681B6819693B6832
:102710001B689BB21A4613465B001344072202FA59
:1027200003F3DA437B681B680A401A617B681B6805
:1027300019693B689A683B681B689BB21846034658
:102740005B0003449A407B681B680A431A613B683C
:102750005B68062B24D87B681B68596B3B685A68FA
:1027600013469B001344053B1F2202FA03F3DA438E
:102770007B681B680A405A637B681B68596B3B681F
:102780001B689BB218463B685A6813469B0013446B
:10279000053B00FA03F27B681B680A435A634CE06E
:1027A0003B685B680C2B24D87B681B68196B3B6803
:1027B0005A6813469B001344233B1F2202FA03F37B
:1027C000DA437B681B680A401A637B681B68196BD5
:1027D0003B681B689BB218463B685A6813469B00CF
:1027E0001344233B00FA03F27B681B680A431A6315
:1027F00023E07B681B68D96A3B685A6813469B00D4
:102800001344413B1F2202FA03F3DA437B681B683F
:102810000A40DA627B681B68D96A3B681B689BB216
:1028200018463B685A6813469B001344413B00FA24
:1028300003F27B681B680A43DA62224BFB607B6809
:102840001B68214A934209D13B681B68122B05D1B2
:10285000FB685B6843F48002FB685A607B681B6816
:10286000194A934223D13B681B68102B03D03B6865
:102870001B68112B1BD1FB685B6843F40002FB68EB
:102880005A603B681B68102B11D1104B1B68104A13
:10289000A2FB03239A0C13469B0013445B00BB600E
:1028A00002E0BB68013BBB60BB68002BF9D17B68D1
:1028B000002283F83C20002318461437BD465DF8FB
:1028C000047B7047002301400020014000000020ED
:1028D00083DE1B4380B485B000AF7860794BFB602A
:1028E000FB685B6823F44032FB685A60FB685A68F7
:1028F0007B685B681A43FB685A607B681B685A6890
:102900007B681B6822F480725A607B681B68596878
:102910007B681B691A027B681B680A435A607B68E4
:102920001B685A687B681B6822F040725A607B689B
:102930001B6859687B689A687B681B680A435A6001
:102940007B681B689A687B681B6822F400629A6047
:102950007B681B6899687B68DA687B681B680A4338
:102960009A607B689B6A584A934222D07B681B68B6
:102970009A687B681B6822F070629A607B681B68AB
:1029800099687B689A6A7B681B680A439A607B68CF
:102990001B689A687B681B6822F040529A607B68CB
:1029A0001B6899687B68DA6A7B681B680A439A60CF
:1029B0000FE07B681B689A687B681B6822F0706276
:1029C0009A607B681B689A687B681B6822F040529B
:1029D0009A607B681B689A687B681B6822F0020219
:1029E0009A607B681B6899687B681B7E5A007B68CD
:1029F0001B680A439A607B6893F82030002B1BD039
:102A00007B681B685A687B681B6842F400625A60E6
:102A10007B681B685A687B681B6822F460425A60B6
:102A20007B681B6859687B685B6A013B5A037B685B
:102A30001B680A435A6007E07B681B685A687B681A
:102A40001B6822F400625A607B681B68DA6A7B6844
:102A50001B6822F47002DA627B681B68D96A7B68A3
:102A6000DB69013B1A057B681B680A43DA627B68F5
:102A70001B689A687B681B6822F400729A607B6806
:102A80001B6899687B6893F830305A027B681B6832
:102A90000A439A607B681B689A687B681B6822F40B
:102AA00080629A607B681B6899687B685B699A02A0
:102AB0007B681B680A439A6000BF1437BD465DF807
:102AC000047B7047002301400100000F80B485B0F3
:102AD00000AF78607B6803F00703FB600C4BDB689A
:102AE000BB60BA684FF6FF031340BB60FB681A0275
:102AF000BB68134343F0BF6343F40033BB60044A35
:102B0000BB68D36000BF1437BD465DF8047B7047D7
:102B100000ED00E080B400AF044BDB681B0A03F05B
:102B200007031846BD465DF8047B704700ED00E0E2
:102B300080B483B000AF0346FB7197F90730002BD8
:102B40000BDBFB7903F01F02074997F907305B099C
:102B5000012000FA02F241F8232000BF0C37BD46E5
:102B60005DF8047B704700BF00E100E080B483B0F3
:102B700000AF03463960FB7197F90730002B0ADB81
:102B80003B68DAB20C4997F907301201D2B20B4414
:102B900083F800230AE03B68DAB20849FB7903F0C6
:102BA0000F03043B1201D2B20B441A7600BF0C375C
:102BB000BD465DF8047B704700E100E000ED00E0F9
:102BC00080B489B000AFF860B9607A60FB6803F048
:102BD0000703FB61FB69C3F10703042B28BF042330
:102BE000BB61FB690433062B02D9FB69033B00E0A0
:102BF00000237B614FF0FF32BB6902FA03F3DA4333
:102C0000BB681A407B699A404FF0FF317B6901FA3B
:102C100003F3D9437B680B40134318462437BD4662
:102C20005DF8047B704780B582B000AF786078684B
:102C3000FFF74CFF00BF0837BD4680BD80B586B0AA
:102C400000AF0346B9607A60FB7300237B61FFF736
:102C500061FF78617A68B9687869FFF7B1FF024669
:102C600097F90F3011461846FFF780FF00BF18375D
:102C7000BD4680BD80B582B000AF0346FB7197F9B9
:102C800007301846FFF754FF00BF0837BD4680BD28
:102C900080B582B000AF78607B68002B01D1012342
:102CA0000EE07B685B79DBB2002B05D17B680022EC
:102CB0001A717868FEF708FE7B6801225A710023BA
:102CC00018460837BD4680BD80B586B000AF786035
:102CD00000237B61FFF78CFC38617B68002B01D1FE
:102CE000012399E07B68022283F835207B6800226B
:102CF00083F834207B681B681A687B681B6822F0A5
:102D000001021A600FE0FFF773FC02463B69D31A19
:102D1000052B08D97B6820225A657B68032283F83B
:102D20003520032378E07B681B681B6803F00103F0
:102D3000002BE8D17B681B681B687B617A69384B84
:102D400013407B617B685A687B689B681A437B6889
:102D5000DB681A437B681B691A437B685B691A430B
:102D60007B689B691A437B68DB691A437B681B6A33
:102D700013437A6913437B617B685B6A042B07D139
:102D80007B68DA6A7B681B6B13437A6913437B6148
:102D90007B681B687A691A607B681B685B697B616A
:102DA0007B6923F007037B617B685B6A7A69134365
:102DB0007B617B685B6A042B17D17B689B6A7A69AD
:102DC00013437B617B68DB6A002B0ED0786800F0D0
:102DD0007BFA0346002B08D07B6840225A657B684B
:102DE000012283F83520012316E07B681B687A698D
:102DF0005A61786800F032FA0346FB607B68DB6D4D
:102E00003F229A40FB689A607B6800225A657B6883
:102E1000012283F83520002318461837BD4680BDAF
:102E20003F8010F080B584B000AF78607B689B6D08
:102E3000FB60FFF7DDFBB8607B6893F83530DBB2F1
:102E4000022B08D07B6880225A657B68002283F8B9
:102E50003420012352E07B681B681A687B681B687A
:102E600022F016021A607B681B685A697B681B682F
:102E700022F080025A617B681B6C002B03D17B68B7
:102E80009B6C002B07D07B681B681A687B681B68EB
:102E900022F008021A607B681B681A687B681B684E
:102EA00022F001021A6013E0FFF7A2FB0246BB68A2
:102EB000D31A052B0CD97B6820225A657B68032224
:102EC00083F835207B68002283F83420032315E043
:102ED0007B681B681B6803F00103002BE4D17B684F
:102EE000DB6D3F229A40FB689A607B68012283F881
:102EF00035207B68002283F83420002318461037E1
:102F0000BD4680BD80B483B000AF78607B6893F825
:102F10003530DBB2022B04D07B6880225A65012356
:102F20000CE07B68052283F835207B681B681A68F3
:102F30007B681B6822F001021A60002318460C37D8
:102F4000BD465DF8047B704780B586B000AF786001
:102F50000023BB608E4B1B688E4AA2FB03239B0A97
:102F60007B617B689B6D3B613B691B68FB607B6899
:102F7000DB6D08229A40FB681340002B1AD07B6857
:102F80001B681B6803F00403002B13D07B681B68CD
:102F90001A687B681B6822F004021A607B68DB6D8C
:102FA00008229A403B699A607B685B6D43F001029E
:102FB0007B685A657B68DB6D01229A40FB68134091
:102FC000002B12D07B681B685B6903F08003002B29
:102FD0000BD07B68DB6D01229A403B699A607B686D
:102FE0005B6D43F002027B685A657B68DB6D0422EF
:102FF0009A40FB681340002B12D07B681B681B684B
:1030000003F00203002B0BD07B68DB6D04229A4097
:103010003B699A607B685B6D43F004027B685A658C
:103020007B68DB6D10229A40FB681340002B43D075
:103030007B681B681B6803F00803002B3CD07B688F
:10304000DB6D10229A403B699A607B681B681B68A5
:1030500003F48023002B18D07B681B681B6803F4E3
:103060000023002B08D17B681B6C002B24D07B68CD
:103070001B6C786898471FE07B689B6C002B1BD00B
:103080007B689B6C7868984716E07B681B681B68B8
:1030900003F48073002B07D17B681B681A687B6878
:1030A0001B6822F008021A607B681B6C002B03D09F
:1030B0007B681B6C786898477B68DB6D20229A40A0
:1030C000FB681340002B00F08F807B681B681B6837
:1030D00003F01003002B00F087807B68DB6D20225B
:1030E0009A403B699A607B6893F83530DBB2052BD8
:1030F00036D17B681B681A687B681B6822F0160251
:103100001A607B681B685A697B681B6822F0800222
:103110005A617B681B6C002B03D17B689B6C002B76
:1031200007D07B681B681A687B681B6822F008025E
:103130001A607B68DB6D3F229A403B699A607B682E
:10314000012283F835207B68002283F834207B68D5
:103150001B6D002B7ED07B681B6D7868984779E0EB
:103160007B681B681B6803F48023002B1DD07B68E1
:103170001B681B6803F40023002B0DD17B685B6C7C
:10318000002B31D07B685B6C786898472CE000BFDF
:1031900000000020B5814E1B7B68DB6B002B23D029
:1031A0007B68DB6B786898471EE07B681B681B6850
:1031B00003F48073002B0FD17B681B681A687B684F
:1031C0001B6822F010021A607B68012283F8352008
:1031D0007B68002283F834207B68DB6B002B03D0F4
:1031E0007B68DB6B786898477B685B6D002B32D01F
:1031F0007B685B6D03F00103002B22D07B68052206
:1032000083F835207B681B681A687B681B6822F08E
:1032100001021A60BB680133BB607A699A4207D326
:103220007B681B681B6803F00103002BF2D100E0F0
:1032300000BF7B68012283F835207B68002283F879
:1032400034207B68DB6C002B05D07B68DB6C7868F6
:10325000984700E000BF1837BD4680BD80B485B0F8
:1032600000AF78607B681B68DBB2103B144AA2FB9E
:1032700003231B09FB60134AFB6813441B781A469F
:103280007B68DA65FB68032B09D97B681B6823F42C
:103290007F7323F003031A1D7B689A6507E07B6840
:1032A0001B6823F47F7323F003037A6893657B68BC
:1032B0009B6D18461437BD465DF8047B704700BF10
:1032C000ABAAAAAA2CA3000880B485B000AF78608E
:1032D0000023FB737B689B6ABB607B689B69002B48
:1032E0001FD1BB68032B56D801A252F823F000BFB0
:1032F0000133000813330008013300089733000836
:103300007B68DB6A03F08073002B46D00123FB73DC
:1033100043E07B68DB6AB3F1C07F40D10123FB73DC
:103320003DE07B689B69B3F5005F21D1BB68032B4F
:1033300037D801A252F823F0493300084F33000870
:1033400049330008613300080123FB7330E07B68D8
:10335000DB6A03F08073002B25D00123FB7322E08E
:103360007B68DB6AB3F1C07F1FD10123FB731CE0D4
:10337000BB68022B03D9BB68032B03D018E00123E1
:10338000FB7315E07B68DB6A03F08073002B0ED0C3
:103390000123FB730BE000BF0AE000BF08E000BFA1
:1033A00006E000BF04E000BF02E000BF00E000BF95
:1033B000FB7B18461437BD465DF8047B704700BFA1
:1033C00080B489B000AF7860396000237B6100234E
:1033D0003B610023BB610023FB616BE10122FB69C0
:1033E00002FA03F37B613B681B687A6913403B6117
:1033F0003A697B699A4240F05A813B685B6803F006
:103400000303012B05D03B685B6803F00303022B29
:1034100030D17B689B68BB61FB695B00032202FAC9
:1034200003F3DB43BA691340BB613B68DA68FB69AD
:103430005B0002FA03F3BA691343BB617B68BA69A4
:103440009A607B685B68BB610122FB6902FA03F347
:10345000DB43BA691340BB613B685B681B0903F03F
:103460000102FB6902FA03F3BA691343BB617B688B
:10347000BA695A603B685B6803F00303032B17D0FB
:103480007B68DB68BB61FB695B00032202FA03F324
:10349000DB43BA691340BB613B689A68FB695B0018
:1034A00002FA03F3BA691343BB617B68BA69DA6055
:1034B0003B685B6803F00303022B23D1FB69DA0846
:1034C0007B68083253F82230BB61FB6903F00703C5
:1034D0009B000F2202FA03F3DB43BA691340BB617E
:1034E0003B681A69FB6903F007039B0002FA03F3C8
:1034F000BA691343BB61FB69DA087B680832B969B2
:1035000043F822107B681B68BB61FB695B000322E8
:1035100002FA03F3DB43BA691340BB613B685B68A3
:1035200003F00302FB695B0002FA03F3BA69134379
:10353000BB617B68BA691A603B685B6803F440331F
:10354000002B00F0B4800023FB60604B5B6C5F4A93
:1035500043F4804353645D4B5B6C03F48043FB6036
:10356000FB685B4AFB699B08023352F82330BB615E
:10357000FB6903F003039B000F2202FA03F3DB4312
:10358000BA691340BB617B68524A93422BD07B6877
:10359000514A934225D07B68504A93421FD07B68A2
:1035A0004F4A934219D07B684E4A934213D07B68AE
:1035B0004D4A93420DD07B684C4A934207D07B68BA
:1035C0004B4A934201D107230EE008230CE0062367
:1035D0000AE0052308E0042306E0032304E00223B5
:1035E00002E0012300E00023FA6902F003029200E6
:1035F0009340BA691343BB613549FB699B080233A9
:10360000BA6941F823203B4B9B68BB613B69DB43B4
:10361000BA691340BB613B685B6803F48013002BFD
:1036200003D0BA693B691343BB61324ABB699360FB
:10363000304BDB68BB613B69DB43BA691340BB615C
:103640003B685B6803F40013002B03D0BA693B6945
:103650001343BB61274ABB69D360264B5B68BB61E0
:103660003B69DB43BA691340BB613B685B6803F4A9
:103670000033002B03D0BA693B691343BB611D4A79
:10368000BB6953601B4B1B68BB613B69DB43BA6979
:103690001340BB613B685B6803F48033002B03D0AD
:1036A000BA693B691343BB61124ABB691360FB698A
:1036B0000133FB61FB690F2B7FF690AE00BF00BFAB
:1036C0002437BD465DF8047B704700BF00380240D8
:1036D000003801400000024000040240000802409F
:1036E000000C02400010024000140240001802408A
:1036F000001C0240003C014080B483B000AF786001
:103700000B467B8013467B707B78002B03D07A8836
:103710007B689A6103E07B881A047B689A6100BF2A
:103720000C37BD465DF8047B7047000080B584B05F
:1037300000AF78607B68002B01D101232BE17B680F
:1037400093F83D30DBB2002B06D17B68002283F872
:103750003C207868FEF7DAF87B68242283F83D2065
:103760007B681B681A687B681B6822F001021A607C
:103770007B681B681A687B681B6842F400421A6009
:103780007B681B681A687B681B6822F400421A6019
:1037900000F08AFDF8607B685B68814A934207D835
:1037A000FB68804A934294BF01230023DBB206E00A
:1037B000FB687D4A934294BF01230023DBB2002BB8
:1037C00001D00123E7E0FB68784AA2FB03239B0CAE
:1037D000BB607B681B685B6823F03F017B681B68EC
:1037E000BA680A435A607B681B681B6A23F03F0172
:1037F0007B685B686A4A934202D8BB68013309E080
:10380000BB684FF4967202FB03F3694AA2FB0323E1
:103810009B0901337A6812680B4313627B681B684B
:10382000DB6923F44F4222F0FF027B685B685C494E
:103830008B4219D8FB68591E7B685B685B00B1FB43
:10384000F3F3591C40F6FC730B40002B0AD0FB68C5
:10385000591E7B685B685B00B1FBF3F30133C3F374
:103860000B0351E004234FE07B689B68002B11D1D0
:10387000FB68581E7B6859680B465B000B44B0FB25
:10388000F3F30133C3F30B03002B0CBF012300231D
:10389000DBB212E0FB68581E7B6859680B469B0040
:1038A0000B4499000B44B0FBF3F30133C3F30B0358
:1038B000002B0CBF01230023DBB2002B01D001231E
:1038C00022E07B689B68002B0ED1FB68581E7B684A
:1038D00059680B465B000B44B0FBF3F30133C3F3B1
:1038E0000B0343F400430FE0FB68581E7B685968E4
:1038F0000B469B000B4499000B44B0FBF3F30133E0
:10390000C3F30B0343F44043796809681343CB6165
:103910007B681B681B6823F0C0017B68DA697B68E1
:103920001B6A1A437B681B680A431A607B681B6822
:103930009B6823F4034323F0FF037A6811697A68D4
:10394000D26811437A6812680B4393607B681B68E6
:10395000DB6823F0FF017B685A697B689B691A4327
:103960007B681B680A43DA607B681B681A687B689F
:103970001B6842F001021A607B6800221A647B68AF
:10398000202283F83D207B6800221A637B68002296
:1039900083F83E20002318461037BD4680BD00BF87
:1039A000A08601007F841E00FF083D0083DE1B43CC
:1039B000D34D621080B586B000AF78607B68002B75
:1039C00001D1012367E27B681B6803F00103002B30
:1039D00075D0884B9B6803F00C03042B0CD0854BEF
:1039E0009B6803F00C03082B12D1824B5B6803F435
:1039F0008003B3F5800F0BD17E4B1B6803F40033BB
:103A0000002B5BD07B685B68002B57D1012342E21F
:103A10007B685B68B3F5803F06D1764B1B68754ABF
:103A200043F4803313601DE07B685B68B3F5A02F1F
:103A30000CD1704B1B686F4A43F4802313606D4BAD
:103A40001B686C4A43F4803313600BE0694B1B68BE
:103A5000684A23F480331360664B1B68654A23F47D
:103A6000802313607B685B68002B13D0FEF7C0FDDA
:103A7000386108E0FEF7BCFD02463B69D31A642BAF
:103A800001D9032307E25B4B1B6803F40033002BCF
:103A9000F0D014E0FEF7ACFD386108E0FEF7A8FDB9
:103AA00002463B69D31A642B01D90323F3E1514B3E
:103AB0001B6803F40033002BF0D100E000BF7B68EB
:103AC0001B6803F00203002B63D04A4B9B6803F092
:103AD0000C03002B0BD0474B9B6803F00C03082B07
:103AE0001CD1444B5B6803F48003002B16D1414B7F
:103AF0001B6803F00203002B05D07B68DB68012BF9
:103B000001D00123C7E13B4B1B6823F0F8027B681F
:103B10001B69DB00374913430B603AE07B68DB68C5
:103B2000002B20D0344B01221A60FEF761FD386172
:103B300008E0FEF75DFD02463B69D31A022B01D96E
:103B40000323A8E12B4B1B6803F00203002BF0D0EA
:103B5000284B1B6823F0F8027B681B69DB002549B2
:103B600013430B6015E0244B00221A60FEF740FD62
:103B7000386108E0FEF73CFD02463B69D31A022B90
:103B800001D9032387E11B4B1B6803F00203002BC1
:103B9000F0D17B681B6803F00803002B36D07B68EC
:103BA0005B69002B16D0154B01221A60FEF720FD31
:103BB000386108E0FEF71CFD02463B69D31A022B70
:103BC00001D9032367E10B4B5B6F03F00203002B6A
:103BD000F0D01BE0094B00221A60FEF709FD3861A6
:103BE0000EE0FEF705FD02463B69D31A022B07D90A
:103BF000032350E10038024000004742800E474254
:103C0000884B5B6F03F00203002BEAD17B681B68D3
:103C100003F00403002B00F097800023FB75814B19
:103C20001B6C03F08053002B0FD10023BB607D4B36
:103C30001B6C7C4A43F0805313647A4B1B6C03F07B
:103C40008053BB60BB680123FB75774B1B6803F493
:103C50008073002B18D1744B1B68734A43F4807334
:103C60001360FEF7C5FC386108E0FEF7C1FC0246B0
:103C70003B69D31A022B01D903230CE16A4B1B6861
:103C800003F48073002BF0D07B689B68012B06D176
:103C9000644B1B6F634A43F0010313671CE07B68AE
:103CA0009B68052B0CD15F4B1B6F5E4A43F00403EE
:103CB00013675C4B1B6F5B4A43F0010313670BE018
:103CC000584B1B6F574A23F001031367554B1B6F6B
:103CD000544A23F0040313677B689B68002B15D0BC
:103CE000FEF786FC38610AE0FEF782FC02463B697B
:103CF000D31A41F28832934201D90323CBE0494BD6
:103D00001B6F03F00203002BEED014E0FEF770FCF3
:103D100038610AE0FEF76CFC02463B69D31A41F2B7
:103D20008832934201D90323B5E03E4B1B6F03F069
:103D30000203002BEED1FB7D012B05D1394B1B6C0F
:103D4000384A23F0805313647B689B69002B00F092
:103D5000A180344B9B6803F00C03082B5CD07B687C
:103D60009B69022B41D1314B00221A60FEF740FCC7
:103D7000386108E0FEF73CFC02463B69D31A022B8F
:103D800001D9032387E0274B1B6803F00073002B46
:103D9000F0D17B68DA697B681B6A1A437B685B6ACF
:103DA0009B011A437B689B6A5B08013B1B041A4317
:103DB0007B68DB6A1B061B4913434B601B4B0122CC
:103DC0001A60FEF715FC386108E0FEF711FC0246A8
:103DD0003B69D31A022B01D903235CE0114B1B680A
:103DE00003F00073002BF0D054E0104B00221A6057
:103DF000FEF7FEFB386108E0FEF7FAFB02463B697E
:103E0000D31A022B01D9032345E0064B1B6803F0AC
:103E10000073002BF0D13DE07B689B69012B07D13B
:103E2000012338E000380240007000406000474243
:103E30001B4B5B68FB607B689B69012B28D0FB6890
:103E400003F480027B68DB699A4221D1FB6803F0AE
:103E50003F027B681B6A9A421AD1FA6847F6C07320
:103E600013407A68526A9201934211D1FB6803F4BD
:103E700040327B689B6A5B08013B1B049A4207D176
:103E8000FB6803F070627B68DB6A1B069A4201D014
:103E9000012300E0002318461837BD4680BD00BF4F
:103EA0000038024080B584B000AF786039607B682C
:103EB000002B01D10123CCE0684B1B6803F0070302
:103EC0003A689A420CD9654B3A68D2B21A70634B81
:103ED0001B6803F007033A689A4201D00123B8E057
:103EE0007B681B6803F00203002B20D07B681B68F3
:103EF00003F00403002B05D0594B9B68584A43F448
:103F0000E05393607B681B6803F00803002B05D027
:103F1000534B9B68524A43F460439360504B9B68F9
:103F200023F0F0027B689B684D4913438B607B68EC
:103F30001B6803F00103002B44D07B685B68012BF6
:103F400007D1474B1B6803F40033002B19D1012321
:103F50007FE07B685B68022B03D07B685B68032B88
:103F600007D13F4B1B6803F00073002B09D10123DD
:103F70006FE03B4B1B6803F00203002B01D10123D0
:103F800067E0374B9B6823F003027B685B6834492A
:103F900013438B60FEF72CFBF8600AE0FEF728FB6A
:103FA0000246FB68D31A41F28832934201D90323B7
:103FB0004FE02B4B9B6803F00C027B685B689B0017
:103FC0009A42EBD1254B1B6803F007033A689A42EB
:103FD0000CD2224B3A68D2B21A70204B1B6803F005
:103FE00007033A689A4201D0012332E07B681B68DC
:103FF00003F00403002B08D0194B9B6823F4E05214
:104000007B68DB68164913438B607B681B6803F091
:104010000803002B09D0124B9B6823F460427B6895
:104020001B69DB000E4913438B6000F02DF802463C
:104030000B4B9B681B0903F00F030A49CB5C22FA68
:1040400003F3094A1360094B1B681846FEF72EF963
:10405000002318461037BD4680BD00BF003C02401B
:104060000038024014A300080000002004000020D3
:1040700080B400AF034B01221A6000BFBD465DF85B
:10408000047B70474C0047422DE9B04F94B000AF1D
:1040900000237B640023FB6400233B640023BB6498
:1040A000794B9B6803F00C03082B0DD0082B00F212
:1040B000E180002B02D0042B03D0DBE0734BBB6408
:1040C000DBE0724BBB64D8E06F4B5B6803F03F03EF
:1040D0007B646D4B5B6803F48003002B63D06A4BF9
:1040E0005B689B090022BB63FA63BB6BC3F30803E5
:1040F0003B6300237B63D7E90C4522462B464FF0F8
:1041000000004FF00001590141EAD261500102461E
:104110000B462146511A3961294663EB01037B6145
:104120004FF000024FF00003D7E904AB59468B0172
:10413000514643EA916351468A015146B2EB010868
:10414000594663EB01094FF000024FF000034FEABC
:10415000C90343EA58734FEAC8029046994623467A
:1041600018EB0303BB602B4649EB0303FB604FF0E6
:1041700000024FF00003D7E9024529468B02214691
:1041800043EA915321468A02104619467B6C00226D
:10419000BB62FA62D7E90A23FCF71AF802460B461B
:1041A0001346FB6458E0384B5B689B0900221846B5
:1041B0001146C0F308033B6200237B62D7E90889FC
:1041C00042464B464FF000004FF00001590141EAD2
:1041D000D261500102460B464146B2EB010A494604
:1041E00063EB010B4FF000024FF000034FEA8B131B
:1041F00043EA9A634FEA8A12B2EB0A0463EB0B05B7
:104200004FF000024FF00003EB0043EA5473E2006A
:1042100014461D464346E3183B604B4645EB0303FB
:104220007B604FF000024FF00003D7E900452946BC
:104230008B02214643EA915321468A0210461946D1
:104240007B6C0022BB61FA61D7E90623FBF7C0FF54
:1042500002460B461346FB640B4B5B681B0C03F0DA
:10426000030301335B003B64FA6C3B6CB2FBF3F37A
:10427000BB6402E0054BBB6400BFBB6C1846503703
:10428000BD46BDE8B08F00BF003802400024F400F6
:1042900080B400AF034B1B681846BD465DF8047B35
:1042A000704700BF0000002080B500AFFFF7F0FFAF
:1042B0000246054B9B689B0A03F007030349CB5C4E
:1042C00022FA03F3184680BD0038024024A30008F8
:1042D00080B500AFFFF7DCFF0246054B9B685B0B28
:1042E00003F007030349CB5C22FA03F3184680BDB1
:1042F0000038024024A3000880B483B000AF786087
:1043000039607B680F221A60124B9B6803F003022E
:104310007B685A600F4B9B6803F0F0027B689A60E1
:104320000C4B9B6803F4E0527B68DA60094B9B6896
:10433000DB0803F4E0527B681A61074B1B6803F04B
:1043400007023B681A6000BF0C37BD465DF8047B6E
:10435000704700BF00380240003C024080B500AF0B
:10436000064BDB6803F08003802B04D100F00AF8D1
:10437000034B80221A7000BF80BD00BF003802408E
:104380000E38024080B400AF00BFBD465DF8047B2C
:104390007047000080B582B000AF78607B68002B6A
:1043A00001D101239BE07B685B6A002B08D17B680D
:1043B0005B68B3F5827F09D07B680022DA6105E093
:1043C0007B6800221A617B6800225A617B680022A8
:1043D0009A627B6893F85130DBB2002B26D17B6860
:1043E000002283F850207B683F4A9A657B683F4AE9
:1043F000DA657B683E4A1A667B683E4A5A667B6885
:104400003D4A9A667B683D4ADA667B683C4A1A6791
:104410007B683C4A5A677B689B6F002B02D17B68A4
:10442000394A9A677B689B6F786898477B68022255
:1044300083F851207B681B681A687B681B6822F030
:1044400040021A607B685B6803F482727B689B6839
:1044500003F404431A437B68DB6803F400631A43E4
:104460007B681B6903F002031A437B685B6903F0F6
:1044700001031A437B689B6903F400731A437B684A
:10448000DB6903F038031A437B681B6A03F080037F
:1044900042EA03017B689B6A03F400527B681B6855
:1044A0000A431A607B689B691B0C03F004017B685C
:1044B0005B6A03F010027B681B680A435A607B68E2
:1044C0001B68DA697B681B6822F40062DA617B682A
:1044D00000225A657B68012283F851200023184688
:1044E0000837BD4680BD00BF0D47000821470008C2
:1044F00035470008494700085D4700087147000834
:104500008547000899470008D51A000880B588B08B
:1045100000AF78607B681B685B68FB617B681B6829
:104520009B68BB61BB699B0903F00103002B0FD1A2
:10453000BB6903F00103002B0AD0FB699B0903F060
:104540000103002B04D07B681B6C78689847D8E087
:10455000BB695B0803F00103002B0AD0FB69DB0990
:1045600003F00103002B04D07B685B6C78689847EC
:10457000C7E0BB695B0903F00103002B0CD1BB69E9
:104580009B0903F00103002B06D1BB691B0A03F052
:104590000103002B00F0B580FB695B0903F0010308
:1045A000002B00F0AE80BB699B0903F00103002BD8
:1045B00023D07B6893F85130DBB2032B11D07B689A
:1045C0005B6D43F004027B685A6500237B617B6866
:1045D0001B68DB687B617B681B689B687B617B6910
:1045E0000BE000233B617B681B68DB683B617B68F9
:1045F0001B689B683B613B6983E0BB695B0903F017
:104600000103002B14D07B685B6D43F001027B68D3
:104610005A650023FB607B681B689B68FB607B68B6
:104620001B681A687B681B6822F040021A60FB68EE
:10463000BB691B0A03F00103002B0CD07B685B6D88
:1046400043F008027B685A650023BB607B681B68E7
:104650009B68BB60BB687B685B6D002B50D07B6840
:104660001B685A687B681B6822F0E0025A607B680E
:10467000012283F85120FB6903F00203002B04D1CF
:10468000FB6903F00103002B34D07B681B685A6878
:104690007B681B6822F003025A607B68DB6C002B8E
:1046A00011D07B68DB6C184A1A657B68DB6C184696
:1046B000FEF728FC0346002B05D07B685B6D43F0BA
:1046C00040027B685A657B689B6C002B17D07B6827
:1046D0009B6C0D4A1A657B689B6C1846FEF712FCB2
:1046E0000346002B0BD07B685B6D43F040027B6878
:1046F0005A6504E07B681B6F7868984700E000BF4C
:1047000000BF2037BD4680BDAD47000880B483B0F0
:1047100000AF786000BF0C37BD465DF8047B704782
:1047200080B483B000AF786000BF0C37BD465DF841
:10473000047B704780B483B000AF786000BF0C3753
:10474000BD465DF8047B704780B483B000AF7860ED
:1047500000BF0C37BD465DF8047B704780B483B062
:1047600000AF786000BF0C37BD465DF8047B704732
:1047700080B483B000AF786000BF0C37BD465DF8F1
:10478000047B704780B483B000AF786000BF0C3703
:10479000BD465DF8047B704780B483B000AF78609D
:1047A00000BF0C37BD465DF8047B704780B584B010
:1047B00000AF78607B689B6BFB60FB680022DA8748
:1047C000FB680022DA86FB681B6FF868984700BF19
:1047D0001037BD4680BD000080B582B000AF786064
:1047E0007B68002B01D101234CE07B6893F83D30BE
:1047F000DBB2002B11D17B68002283F83C20786863
:1048000001F076F87B689B6C002B02D17B681F4A15
:104810009A647B689B6C786898477B68022283F86F
:104820003D207B681A687B6804331946104600F007
:104830006FFD7B68012283F846207B68012283F8A4
:104840003E207B68012283F83F207B68012283F8A9
:1048500040207B68012283F841207B68012283F895
:1048600042207B68012283F843207B68012283F881
:1048700044207B68012283F845207B68012283F86D
:104880003D20002318460837BD4680BDF91B0008AF
:1048900080B485B000AF78607B6893F83D30DBB2C0
:1048A000012B01D001234EE07B68022283F83D20DA
:1048B0007B681B68DA687B681B6842F00102DA607B
:1048C0007B681B68234A934222D07B681B68B3F144
:1048D000804F1DD07B681B681F4A934218D07B68AD
:1048E0001B681E4A934213D07B681B681C4A934284
:1048F0000ED07B681B681B4A934209D07B681B68FB
:10490000194A934204D07B681B68184A934211D11C
:104910007B681B689B6803F00703FB60FB68062B42
:1049200010D07B681B681A687B681B6842F0010224
:104930001A6007E07B681B681A687B681B6842F096
:1049400001021A60002318461437BD465DF8047B47
:10495000704700BF00000140000400400008004014
:10496000000C0040000401400040014000180040DD
:1049700080B582B000AF78607B68002B01D1012345
:104980004CE07B6893F83D30DBB2002B11D17B68A3
:10499000002283F83C20786800F0AAFF7B689B6DBA
:1049A000002B02D17B681F4A9A657B689B6D7868F3
:1049B00098477B68022283F83D207B681A687B68F1
:1049C00004331946104600F0A3FC7B68012283F8EB
:1049D00046207B68012283F83E207B68012283F811
:1049E0003F207B68012283F840207B68012283F806
:1049F00041207B68012283F842207B68012283F8F2
:104A000043207B68012283F844207B68012283F8DD
:104A100045207B68012283F83D2000231846083793
:104A2000BD4680BD294A000880B483B000AF7860DD
:104A300000BF0C37BD465DF8047B704780B582B07F
:104A400000AF78607B68002B01D101234CE07B68CC
:104A500093F83D30DBB2002B11D17B68002283F844
:104A60003C20786800F044FF7B681B6E002B02D16D
:104A70007B681F4A1A667B681B6E786898477B685C
:104A8000022283F83D207B681A687B68043319464C
:104A9000104600F03DFC7B68012283F846207B68CD
:104AA000012283F83E207B68012283F83F207B6847
:104AB000012283F840207B68012283F841207B6833
:104AC000012283F842207B68012283F843207B681F
:104AD000012283F844207B68012283F845207B680B
:104AE000012283F83D20002318460837BD4680BDCB
:104AF000F54A000880B483B000AF786000BF0C377F
:104B0000BD465DF8047B704780B586B000AF786025
:104B100039607B68002B01D10123A2E07B6893F808
:104B20003D30DBB2002B11D17B68002283F83C20A2
:104B3000786800F0DDFE7B681B6F002B02D17B687C
:104B40004A4A1A677B681B6F786898477B6802221D
:104B500083F83D207B681B689B687A68126823F4A1
:104B6000804323F0070393607B681A687B680433F3
:104B70001946104600F0CCFB7B681B689B687B6184
:104B80007B681B689B693B617B681B681B6AFB60D9
:104B90003B681B687A6913437B613B6923F440736C
:104BA00023F003033B613B689A683B689B691B02E7
:104BB00013433A6913433B613B6923F4406323F099
:104BC0000C033B613B6923F4704323F0F0033B612A
:104BD0003B68DA683B68DB691B0213433A6913439D
:104BE0003B613B681B691A013B681B6A1B0313434B
:104BF0003A6913433B61FB6823F02203FB60FB68C7
:104C000023F08803FB603B685A683B685B691B01C3
:104C10001343FA681343FB607B681B687A699A60E8
:104C20007B681B683A699A617B681B68FA681A623C
:104C30007B68012283F846207B68012283F83E20AE
:104C40007B68012283F83F207B68012283F84220A1
:104C50007B68012283F843207B68012283F83D2092
:104C6000002318461837BD4680BD00BF451D00080B
:104C700080B584B000AF78607B681B68DB68FB6040
:104C80007B681B681B69BB60BB6803F00203002BD9
:104C900026D0FB6803F00203002B21D07B681B6841
:104CA0006FF002021A617B6801221A777B681B6829
:104CB0009B6903F00303002B05D07B68D3F8903089
:104CC0007868984709E07B68D3F898307868984707
:104CD0007B68D3F89C30786898477B6800221A7705
:104CE000BB6803F00403002B26D0FB6803F0040329
:104CF000002B21D07B681B686FF004021A617B686F
:104D000002221A777B681B689B6903F44073002BAF
:104D100005D07B68D3F890307868984709E07B68C5
:104D2000D3F89830786898477B68D3F89C307868D7
:104D300098477B6800221A77BB6803F00803002BB2
:104D400026D0FB6803F00803002B21D07B681B688A
:104D50006FF008021A617B6804221A777B681B686F
:104D6000DB6903F00303002B05D07B68D3F8903098
:104D70007868984709E07B68D3F898307868984756
:104D80007B68D3F89C30786898477B6800221A7754
:104D9000BB6803F01003002B26D0FB6803F0100360
:104DA000002B21D07B681B686FF010021A617B68B2
:104DB00008221A777B681B68DB6903F44073002BB9
:104DC00005D07B68D3F890307868984709E07B6815
:104DD000D3F89830786898477B68D3F89C30786827
:104DE00098477B6800221A77BB6803F00103002B09
:104DF0000ED0FB6803F00103002B09D07B681B6811
:104E00006FF001021A617B68D3F8803078689847A8
:104E1000BB6803F08003002B0ED0FB6803F0800317
:104E2000002B09D07B681B686FF080021A617B68D9
:104E3000D3F8B03078689847BB6803F04003002B84
:104E40000ED0FB6803F04003002B09D07B681B6881
:104E50006FF040021A617B68D3F888307868984711
:104E6000BB6803F02003002B0ED0FB6803F0200387
:104E7000002B09D07B681B686FF020021A617B68E9
:104E8000D3F8A8307868984700BF1037BD4680BD7A
:104E900080B586B000AFF860B9607A600023FB751A
:104EA000FB6893F83C30012B01D1022348E0FB68FA
:104EB000012283F83C207B680C2B39D801A252F8E0
:104EC00023F000BFF94E0008314F0008314F0008B1
:104ED000314F0008074F0008314F0008314F0008DC
:104EE000314F0008154F0008314F0008314F0008BE
:104EF000314F0008234F0008FB681B68B96818464B
:104F000000F0ACFA17E0FB681B68B968184600F0BF
:104F100015FB10E0FB681B68B968184600F084FBBD
:104F200009E0FB681B68B968184600F0F1FB02E075
:104F30000123FB7500BFFB68002283F83C20FB7D4A
:104F400018461837BD4680BD80B586B000AFF86002
:104F5000B9607A600023FB75FB6893F83C30012B45
:104F600001D10223AEE0FB68012283F83C207B687C
:104F70000C2B00F29F8001A252F823F0B14F0008E1
:104F8000B5500008B5500008B5500008F14F0008B2
:104F9000B5500008B5500008B5500008335000085F
:104FA000B5500008B5500008B5500008735000080F
:104FB000FB681B68B968184600F050FAFB681B686C
:104FC0009A69FB681B6842F008029A61FB681B68DB
:104FD0009A69FB681B6822F004029A61FB681B68EF
:104FE0009969BB681A69FB681B680A439A6164E0A7
:104FF000FB681B68B968184600F0A0FAFB681B68DC
:105000009A69FB681B6842F400629A61FB681B683E
:105010009A69FB681B6822F480629A61FB681B68CE
:105020009969BB681B691A02FB681B680A439A618D
:1050300043E0FB681B68B968184600F0F5FAFB68A6
:105040001B68DA69FB681B6842F00802DA61FB68DA
:105050001B68DA69FB681B6822F00402DA61FB68EE
:105060001B68D969BB681A69FB681B680A43DA6167
:1050700023E0FB681B68B968184600F049FBFB6831
:105080001B68DA69FB681B6842F40062DA61FB683E
:105090001B68DA69FB681B6822F48062DA61FB68CE
:1050A0001B68D969BB681B691A02FB681B680A4345
:1050B000DA6102E00123FB7500BFFB68002283F880
:1050C0003C20FB7D18461837BD4680BD80B584B0B6
:1050D00000AF786039600023FB737B6893F83C3045
:1050E000012B01D10223B4E07B68012283F83C202C
:1050F0007B68022283F83D207B681B689B68BB604D
:10510000BB6823F07703BB60BB6823F47F43BB60BD
:105110007B681B68BA689A603B681B68B3F5005FE0
:105120003ED0B3F5005F00F28780B3F5805F00F0FA
:105130008680B3F5805F7FD8702B1AD0702B7BD818
:10514000602B50D0602B77D8502B3CD0502B73D88D
:10515000402B58D0402B6FD8302B64D0302B6BD8DD
:10516000202B60D0202B67D8002B5CD0102B5AD07E
:1051700062E07B6818683B6899683B685A683B68DE
:10518000DB6800F095FB7B681B689B68BB60BB68B5
:1051900043F07703BB607B681B68BA689A604FE096
:1051A0007B6818683B6899683B685A683B68DB68AD
:1051B00000F07EFB7B681B689A687B681B6842F482
:1051C00080429A603CE07B6818683B6859683B689D
:1051D000DB681A4600F0F2FA7B681B68502118461B
:1051E00000F04BFB2CE07B6818683B6859683B6813
:1051F000DB681A4600F011FB7B681B6860211846CB
:1052000000F03BFB1CE07B6818683B6859683B6812
:10521000DB681A4600F0D2FA7B681B68402118460A
:1052200000F02BFB0CE07B681A683B681B68194692
:10523000104600F022FB03E00123FB7300E000BFF7
:105240007B68012283F83D207B68002283F83C20A4
:10525000FB7B18461037BD4680BD80B483B000AFDD
:10526000786000BF0C37BD465DF8047B704780B4A2
:1052700083B000AF786000BF0C37BD465DF8047B9B
:10528000704780B483B000AF786000BF0C37BD4674
:105290005DF8047B704780B483B000AF786000BFD6
:1052A0000C37BD465DF8047B704780B483B000AF17
:1052B000786000BF0C37BD465DF8047B704780B452
:1052C00083B000AF786000BF0C37BD465DF8047B4B
:1052D000704780B483B000AF786000BF0C37BD4624
:1052E0005DF8047B704780B483B000AF786000BF86
:1052F0000C37BD465DF8047B704780B483B000AFC7
:10530000786000BF0C37BD465DF8047B7047000035
:1053100080B485B000AF786039607B681B68FB6043
:105320007B68434A934213D07B68B3F1804F0FD020
:105330007B68404A93420BD07B683F4A934207D038
:105340007B683E4A934203D07B683D4A934208D132
:10535000FB6823F07003FB603B685B68FA681343EB
:10536000FB607B68324A93422BD07B68B3F1804F5D
:1053700027D07B682F4A934223D07B682E4A9342E2
:105380001FD07B682D4A93421BD07B682C4A9342E6
:1053900017D07B682B4A934213D07B682A4A9342EA
:1053A0000FD07B68294A93420BD07B68284A9342EE
:1053B00007D07B68274A934203D07B68264A9342F2
:1053C00008D1FB6823F44073FB603B68DB68FA6834
:1053D0001343FB60FB6823F080023B685B69134367
:1053E000FB603B689A687B68DA623B681A687B6896
:1053F0009A627B680E4A934203D07B68104A9342BC
:1054000003D13B681A697B681A637B681B6843F0A9
:1054100004027B681A607B6801225A617B68FA6823
:105420001A6000BF1437BD465DF8047B704700BFAB
:10543000000001400004004000080040000C004053
:105440000004014000400140004401400048014088
:1054500000180040001C00400020004080B487B0CD
:1054600000AF786039607B681B6A7B617B681B6A70
:1054700023F001027B681A627B685B683B617B6892
:105480009B69FB60FB6823F07003FB60FB6823F003
:105490000303FB603B681B68FA681343FB607B698E
:1054A00023F002037B613B689B687A6913437B614D
:1054B0007B68204A934203D07B681F4A93420CD1F9
:1054C0007B6923F008037B613B68DB687A691343DF
:1054D0007B617B6923F004037B617B68154A9342FF
:1054E00003D07B68144A934211D13B6923F4807343
:1054F0003B613B6923F400733B613B685B693A693C
:1055000013433B613B689B693A6913433B617B688A
:105510003A695A607B68FA689A613B685A687B68A6
:105520005A637B687A691A6200BF1C37BD465DF812
:10553000047B7047000001400004014080B487B044
:1055400000AF786039607B681B6A7B617B681B6A8F
:1055500023F010027B681A627B685B683B617B68A2
:105560009B69FB60FB6823F4E043FB60FB6823F46A
:105570004073FB603B681B681B02FA681343FB60C7
:105580007B6923F020037B613B689B681B017A6980
:1055900013437B617B68224A934203D07B68214A94
:1055A00093420DD17B6923F080037B613B68DB680C
:1055B0001B017A6913437B617B6923F040037B61A4
:1055C0007B68174A934203D07B68164A934213D1F3
:1055D0003B6923F480633B613B6923F400633B61D7
:1055E0003B685B699B003A6913433B613B689B697D
:1055F0009B003A6913433B617B683A695A607B6858
:10560000FA689A613B685A687B689A637B687A6932
:105610001A6200BF1C37BD465DF8047B704700BFAF
:10562000000001400004014080B487B000AF786002
:1056300039607B681B6A7B617B681B6A23F480721C
:105640007B681A627B685B683B617B68DB69FB6037
:10565000FB6823F07003FB60FB6823F00303FB602F
:105660003B681B68FA681343FB607B6923F4007393
:105670007B613B689B681B027A6913437B617B6893
:10568000214A934203D07B68204A93420DD17B6923
:1056900023F400637B613B68DB681B027A69134378
:1056A0007B617B6923F480637B617B68164A93424C
:1056B00003D07B68154A934213D13B6923F480538E
:1056C0003B613B6923F400533B613B685B691B0111
:1056D0003A6913433B613B689B691B013A69134379
:1056E0003B617B683A695A607B68FA68DA613B68BB
:1056F0005A687B68DA637B687A691A6200BF1C3774
:10570000BD465DF8047B7047000001400004014085
:1057100080B487B000AF786039607B681B6A3B61FA
:105720007B681B6A23F480527B681A627B685B6823
:105730007B617B68DB69FB60FB6823F4E043FB6013
:10574000FB6823F44073FB603B681B681B02FA682C
:105750001343FB603B6923F400533B613B689B6848
:105760001B033A6913433B617B68124A934203D09F
:105770007B68114A934209D17B6923F480437B61A2
:105780003B685B699B017A6913437B617B687A693B
:105790005A607B68FA68DA613B685A687B681A6409
:1057A0007B683A691A6200BF1C37BD465DF8047B0E
:1057B000704700BF000001400004014080B487B082
:1057C00000AFF860B9607A60FB681B6A7B61FB68B8
:1057D0001B6A23F00102FB681A62FB689B693B614C
:1057E0003B6923F0F0033B617B681B013A6913437B
:1057F0003B617B6923F00A037B617A69BB681343D1
:105800007B61FB683A699A61FB687A691A6200BF3A
:105810001C37BD465DF8047B704780B487B000AF8D
:10582000F860B9607A60FB681B6A7B61FB681B6A81
:1058300023F01002FB681A62FB689B693B613B69BD
:1058400023F470433B617B681B033A6913433B615C
:105850007B6923F0A0037B61BB681B017A6913435A
:105860007B61FB683A699A61FB687A691A6200BFDA
:105870001C37BD465DF8047B704780B485B000AF2F
:10588000786039607B689B68FB60FB6823F070037D
:10589000FB603A68FB68134343F00703FB607B68D7
:1058A000FA689A6000BF1437BD465DF8047B704704
:1058B00080B487B000AFF860B9607A603B60FB6885
:1058C0009B687B617B6923F47F437B613B681A02A1
:1058D0007B681A43BB6813437A6913437B61FB6897
:1058E0007A699A6000BF1C37BD465DF8047B70473B
:1058F00080B483B000AF78607B681C4AC3F8802016
:105900007B681B4AC3F884207B681A4AC3F8882046
:105910007B68194AC3F88C207B68184AC3F890202A
:105920007B68174AC3F894207B68164AC3F898200E
:105930007B68154AC3F89C207B68144AC3F8A020F2
:105940007B68134AC3F8A4207B68124AC3F8A820D6
:105950007B68114AC3F8AC207B68104AC3F8B020BA
:1059600000BF0C37BD465DF8047B70475117000837
:105970005B520008D3520008E75200088352000827
:10598000975200086F520008AB520008BF5200083F
:10599000FB5200083D5B0008515B0008655B000896
:1059A00080B485B000AF786039607B6893F83C3094
:1059B000012B01D102235AE07B68012283F83C20AD
:1059C0007B68022283F83D207B681B685B68FB6074
:1059D0007B681B689B68BB60FB6823F07003FB60FF
:1059E0003B681B68FA681343FB607B681B68FA68B6
:1059F0005A607B681B68214A934222D07B681B68EF
:105A0000B3F1804F1DD07B681B681D4A934218D0AC
:105A10007B681B681B4A934213D07B681B681A4A39
:105A200093420ED07B681B68184A934209D07B686A
:105A30001B68174A934204D07B681B68154A93423F
:105A40000CD1BB6823F08003BB603B685B68BA681D
:105A50001343BB607B681B68BA689A607B6801224D
:105A600083F83D207B68002283F83C200023184601
:105A70001437BD465DF8047B704700BF000001404D
:105A80000004004000080040000C004000040140F9
:105A9000004001400018004080B485B000AF78603D
:105AA00039600023FB607B6893F83C30012B01D107
:105AB00002233DE07B68012283F83C20FB6823F051
:105AC000FF023B68DB681343FB60FB6823F4407212
:105AD0003B689B681343FB60FB6823F480623B6870
